:100F5D00010D00080E100E0E0E0E0E0E0E010A6E75
:030F6D00010C0074
:100B0E001210FB1210EA121126120EB6AF0D7E0055
:100B1E00EF7018750E10750F0E75100E75110E758F
:100B2E00120E75130E75140E75150EEF64014E70C0
:100B3E0003750E10EF64024E7047850B0E750F0E87
:100B4E0075100E75110E75120EE50B246DFF120F3A
:100B5E00D4EF75F0648475F00A8485F013E50B24E8
:100B6E006DFF120FD4EF75F00A8475F00A8485F0CC
:100B7E0014E50B246DFF120FD4EF75F00A8485F087
:100B8E0015E50D6403700BE50975F00A84F514E4A0
:0E0B9E00F515AF0A120FD4EFD39509020B170D
:1010FB00D2AF758910758DFC758B66D2ABD28E22F3
:03001B00020D7E55
:100D7E00C0E0C0F0C083C082C0D075D000C000C03B
:0D0D8E0001C002C003C004C005C006C007BC
:100D9B00758DFC758B660508E5086402701AF508FD
:100DAB00851125851226851327851428851529ABD2
:0B0DBB0010AD0FAF0E120C38120CAB85
:100DC600D007D006D005D004D003D002D001D00081
:0B0DD600D0D0D082D083D0F0D0E0322B
:07114A00533D25660D0A006C
:100003007D9A7C03120575EF4E6007EF1F70F81E93
:0200130080F576
:0100150022C8
:10104900D3EF9400EE940040147D6E7C00ED1D708A
:0D105900011CED4C70F7EF1F70E61E80E3E8
:011066002267
:080E72008F2F8E2E8D2D8C2C8C
:100E7A00E4F530F531F582F583F530F531E4F583A3
:100E8A00F582AF82AE83EE3395E0FDFCAB2FAA2E3E
:100E9A00A92DA82CD31205954003A380E50531E5B9
:0B0EAA0031700205306464453070D2E6
:010EB500221A
:1010EA00438901E4F58CF58AD2AFD2A9C28CC2B485
:0110FA0022D3
:0C111A00D2B47F027E00120003C2B42297
:100EF500AF8CEFFEAD8A7C00E42DFFEC3EFEE4F501
:100F05008CF58AAD07AC061201C97B9A7A9979D915
:100F1500783F12001EE4FBFA79C878421201278F48
:070F25006B8E6A8D698C6878
:010F2C0022A2
:08113A008F993099FDC2992242
:1010850012051DFF600C12113A740129F9E43AFAB0
:0D10950080EE7F647E007D007C00020E7204
:100A4B0012111A30B5FDD28C20B5FDC28C120EF5E9
:100A5B00E4F58CF58A752FFF75301175314A856B6E
:100A6B0035856A34856933856832FB7A007948129B
:100A7B0006387B007A007948121085AF6BAE6AADF1
:100A8B0069AC681202028F0CE50C75F0648475F08A
:100A9B000A8485F010E50C75F00A8475F00A8485DC
:100AAB00F011E50C75F00A8485F012E50A646E709E
:100ABB00077F71120FD48F2BE50A647170077F705B
:100ACB00120FD48F2BE50A646F70077F6E120FD451
:100ADB008F2BE50A647070077F6F120FD48F2BE595
:100AEB002B75F0648475F00A8485F013E52B75F093
:100AFB000A8475F00A8485F014E52B75F00A848559
:020B0B00F015E3
:010B0D0022C5
:05114200121147D2A1CB
:0311470000002283
:1010D800E4FDFCC3ED9FEC9E50070DBD00010C80A4
:0110E800F215
:0110E90022E4
:0A112600D2A1121147D2A002114716
:0F110B00D2A0121142C2A0121147C2A102114775
:0A113000C2A0121142D2A002114722
:100F8600E4FEEEC39408748094805011EF25E0FFD0
:100F9600C2A112114792A01211420E80E5C2A112FF
:070FA6001147D2A002114720
:100F2D00E4FEC2A1121147D2A0FDEDC39408748056
:100F3D009480501612114230A0047F018002E4FF0C
:0F0F4D00EE25E04FFEC2A10D80E0121147AF0666
:010F5C002272
:0B0FAD00120F86120FB8AF05120F865E
:100FB800E4FFD2A112114730A00DEFC394FF748053
:0C0FC800948050030F80F0C2A10211477A
:020FD400AD0767
:100FD60012110B7FA0120FAD12110B7FA1120F86FB
:100FE600120FB8120F2DAB071211307F647E00125C
:040FF60010D8AF035D
:010FFA0022D4
:1010A200AC0712110B7FA0120F86120FB8AF0412F9
:0C10B2000FAD1211307F887E130210D8A1
:040016000D26281B70
:100F70008404010101018400010101010116000442
:050F800017FFFFFFFF59
:100EB600E4F52AC3E52A94047480948050307404BF
:100EC600252AF8E2FF7400252AF8E2FE6F601BEE81
:100ED600600AE52A90001693FF1210677404252A0B
:0E0EE600F8E2FF7400252AF8EFF2052A80C515
:010EF40022DB
:100CAB00E51725E0FFA2B0E4334FF517E51825E073
:100CBB00FFA2B1E4334FF518E51925E0FFA2B2E42A
:100CCB00334FF519E51A25E0FFA2B3E4334FF51ABC
:100CDB000516E51664047031F516FFEFC394047422
:100CEB00809480502474172FF8E6540FFD7C00700D
:100CFB000874042FF8E4F2800DED640F4C70077448
:090D0B00042FF87401F20F80D2EC
:010D140022BC
:1010BE003F065B4F666D7D077F6F3F737B3700404A
:0A10CE003971FEFDFBF7EFDFBF7F75
:100C38007580FFD2A7E51B9010D093F580C2A7E579
:100C48001BB408005052900C55F8282873020C6DFC
:100C5800020C72020C77020C7C020C82020C8802D5
:100C68000C8E020C94D2A6EF8026D2A6ED8021D25B
:100C7800A6EB801CD2A6E5258016D2A6E526801014
:100C8800D2A6E527800AD2A6E5288004D2A6E529BF
:100C98009010BE93F580C2A6051BE51B6408700280
:020CA800F51B3A
:010CAA002227
:100E2A00E50D7027750D01750E10120A4BAD0CAF4A
:100E3A000A1210A2E50A64717005750A6E8002052D
:100E4A000A75130E75140E75150E22E50D640170E0
:100E5A0016120A4BAD0CAF0A1210A2E50A647170A1
:080E6A0004750A6E22050A223C
:100DE100AF0D7E00EF64017007750D02750B0122D6
:100DF100EF64024E7032750D01AF0A120FD4EF7518
:100E0100F0648475F00A8485F013AF0A120FD4EFF1
:100E110075F00A8475F00A8485F014AF0A120FD4B4
:090E2100EF75F00A8485F015223A
:100D1500E50D64036023750D03750E11750F0E75D2
:100D2500100E75110E75120E75130E75140EE4F571
:100D3500157F72120FD48F0922E50D64037039AD4A
:100D4500097F721210A2AF0A120FD4EF75F06484F6
:100D550075F00A8485F013AF0A120FD4EF75F00A07
:100D65008475F00A8485F014AF0A120FD4EF75F07C
:090D75000A8485F015750D0122B8
:100FFB00AF0D7E00EF6402700B050BE50B64057003
:10100B0003750B01EF64034E700C740A2509F50987
:07101B0064287002F50922B0
:10106700EF24E5601524F5600B24FE600A241B704D
:0E1077000C020E2A020DE1020D15120FFB22D3
:10001E00EC4D6011E8497017ED33EC3304600DE4DC
:10002E00FCFFFEFD22E933E8330470F802026E1283
:10003E00023958046009E4CC248150062850090284
:10004E000278284003020275C0E0EB4A7044B98082
:10005E0006D0E0FB020264EF4E701CBD8008EBFF81
:10006E00EAFEE9FD80EBE98DF0A4FEE5F002010762
:10007E00E9CDF9EAFEEBFFEF89F0A4FCE5F0CE89BD
:10008E00F0A42EFFE435F0CD89F0A42DFEE435F07A
:10009E008067EF4E7005BD80D780C3EF8BF0A4ACA8
:1000AE00F0EE8BF0A42CFCE435F0F8EF8AF0A42CE3
:1000BE00E5F038FCE433CB8DF0A42CFCE5F03BF8F6
:1000CE00EE8AF0A42CFCE5F038F8E433CF89F0A4E6
:1000DE002CFCE5F038CF3400CE89F0A42FFFE5F0EC
:1000EE003EFEE433C98DF0A42EFEE5F039CD8AF044
:1000FE00A42FFFE5F03EFEE43DFD33D0E0FB5007BC
:10010E000BBB000F020278EC2CFCEF33FFEE33FE3C
:06011E00ED33FD0202506A
:10012400020278EC5D046005E85904700302026E73
:10013400120239580460F6EC4860F2EC7004FDFEDB
:10014400FF22C860DB2481C85009C39860025006AE
:100154000202759850CAF582E9294B4A7005AB82B0
:1001640002026475F0007C1A7880C3EF9BEE9AED6E
:1001740099400DC3EF9BFFEE9AFEED99FDE842F026
:10018400DC23ACF0D0E0FFD0E0FED0E0FDAB822079
:10019400E7101BEB60BAEC2CFCEF33FFEE33FEED03
:1001A40033FD020250E803F830E705C0F075F000B3
:1001B400EF2FFFEE33FEED33FD40B830E7C280AAE7
:1001C40075F020800E75F010800575F0087D007EB6
:1001D400007F003392D530D503120587EC334010ED
:1001E400EF33FFEE33FEED33FDEC33FCD5F0ED22BF
:0E01F400E5F0247EA2D513CC92E7CDCEFF22FB
:10020200EDD2E7CD33EC3392D524814006E4FFFEF4
:10021200FDFC22FCE4CFCECDCC24E0501174FF8053
:10022200EDC3CC13CCCD13CDCE13CECF13CF0470F0
:07023200F030D5DE02058764
:1005DC00E543242FF8E6054322782C300702782FC8
:1005EC00E475F0011205A602051D2000EB7F2ED24A
:1005FC00008018EF540F2490D43440D4FF30040BF7
:10060C00EF24BFB41A0050032461FFE544600215C7
:10061C00440547E5477002054630070D782CE47514
:10062C00F0011205A6EF0205630210227403D20733
:10063C008003E4C207F5438B2C8A2D892EE4F54404
:10064C00F546F547E54460077F2012061780F575DF
:10065C0045FFC201C200C202C203C205C206C208E3
:10066C001205E5FF700D3007057F00120628AF4715
:10067C00AE4622B4255FC2D5C2041205E5FF24D0D4
:10068C00B40A00501A75F00A784430D50508B6FF44
:10069C000106C6A426F620D5047002D20380D92404
:1006AC00CFB41A00EF5004C2E5D204020915D201EE
:1006BC0080C6D20080C0D20280BCD2D580BAD2050E
:1006CC0080B47F201206172002077401B544004045
:1006DC00F11205DCFF120617020650D208D2068072
:1006EC00951205DCFB1205DCFA1205DCF94A4B709D
:1006FC0006790C7A0A7BFF20022EE544602A7E00E4
:10070C008E8275830012053660060EEE654570F01C
:10071C00C2D5EBC0E0EAC0E0E9C0E0EE120975D04A
:10072C00E0F9D0E0FAD0E0FB12051DFF60AAEBC0A7
:10073C00E0EAC0E0E9C0E0120617D0E02401F9D0ED
:10074C00E03400FAD0E0FBE5450460DCD545D98007
:10075C0087D20280A212095860F7E5457001041295
:10076C000283A945600DE545600914F5451209FFA2
:10077C00EF60F3EA30E702F404C3995077EAF4250A
:10078C00450430E701E404F545800D12095860C1B9
:10079C00EA05452545120283EA7842F630E701E482
:1007AC00254504D5450420050114120975E4C0E063
:1007BC001209FF7842E6601320E70714F61205FFD2
:1007CC00802204F6D0E014C0E07F001205FFE5455E
:1007DC0060071205F61545800B3005031205F6D09F
:1007EC00E0020650D0E00480C512095860A0E5452F
:1007FC00041202837842EAF6E54520050260010402
:05080C0024041209752F
:1008110074FF04C0E01209FF1205FFE5452005023F
:1008210060031205F6D0E0B545E87F451206097868
:1008310042E67F2B30E7047F2DF404C0E012061757
:10084100D0E075F00A84C0F0120600D0E012060074
:10085100020650791080027908C206C2088008D2C7
:10086100D5790A8004790AC2D5E545047002F545B7
:10087100E4FAFDFEFF1205DCFC7B082001131205E2
:10088100DCFD7B1030000A1205DCFE1205DCFF7B6B
:1008910020EC3382D592D55013C3E43000069FFF7C
:1008A100E49EFEE42001039DFDE49CFCE4CBF8C240
:1008B10001EC700CCFCECDCCE824F8F870F38017A2
:1008C100C3EF33FFEE33FEED33FDEC33FCEB33FBD3
:1008D100994002FB0FD8E9EB300105F8D0E0C4489C
:1008E100B201C0E00AEC4D4E4F78207B0070C2EAA5
:1008F100B5450040BCC0E0120977D0F0D0E020013E
:1009010004C4C0E0C4B201C0F0120600D0F0D5F0BA
:10091100EB0206501205B606ED5308545806BE4CBC
:1009210006BA4208584F08604408604906D3430894
:10093100665507974607F5450761470A2C5006C2D9
:100941002D06C62E06E92B06CA2306E7200A152A1C
:10095100068248000006E1E545B4FF03754506122D
:1009610005DCFC1205DCFD1205DCFE1205DCFF785E
:100971003B0202B2790AA2D5200314300509B9104D
:10098100020404B9080104A2D52006025001042082
:1009910002689202B544005034C0E07F2030031950
:1009A1007F30A20272067205500F1209CEC202C236
:1009B10006C205C2087F30800F300503E9C0E0128E
:1009C1000617300503D0E0F9D0E0B544CC30051767
:1009D1007F30B9100C1206177F583004077F7880DA
:1009E10003B908031206173002057F2D0206177F8F
:1009F100202008F87F2B2006F322920280CF7F006F
:100A0100B407005005243BF8E6FF22286E756C6C94
:100A11002900D2011205DC3001F8C201784430D539
:100A21000108F60206822D504349581205DC2403C1
:100A3100B405004001E4900A2793120608743A12A3
:0A0A41000608D203754404020854AD
:10023900E9D2E7C933E833F892D5EDD2E7CD33EC0B
:0702490033FC5002B2D52284
:10025000EC30E7100FBF000C0EBE00080DBD00040F
:100260000BEB6014A2D5EB13FCED92E7FD2274FFBB
:10027000FCFDFEFF22E480F8A2D574FF13FC7D8014
:03028000E480EF28
:10028300F920E72824F950037907E4F42402FB1842
:10029300DBFDE624FB5014E9600DE4F618E604F6F2
:0F02A300B40A08E4F6D9F57401F60A22C2D5228E
:1002B200ED33EC3392D5FA602AB4FF33EDC2E77B1B
:1002C200FF60067A0279D7E4227A0279E020D50427
:1002D2007A0279DB224E614E002B494E46002D49AF
:1002E2004E4600E47A08F608DAFC7B00740722E83E
:1002F200C0E0ECC0E0EDC0E0EEC0E0EFC0E0EA75C7
:10030200F010A4CAABF075F04DA42BFBE435F0FC61
:10031200EA2410FAEB34C5FBEC34D9FCEDC2E7FF5A
:1003220075F056A4F42411C5F0F434C58FF0A42A54
:10033200E5F03BE43CF620E7141204DDD0E0FFD008
:10034200E0FED0E0FDD0E0FC1201278014F404129C
:1003520004DDD0E0FFD0E0FED0E0FDD0E0FC1200F2
:100362001ED0E0F8E6FAEDD2E7CD33EC332482FB7F
:10037200E4C3CF33CFCE33CECD33CD33DBF37B07E4
:1003820075F00A846004F6081B0AE5F0F6088FF09F
:10039200740AA4FFACF08EF0740AA42CFEACF050E8
:1003A200010C8DF0740AA42CFDE435F0F608DBDEB6
:0303B200740722AB
:1003B50002026EE86480F8E933E83360110460F006
:1003C500ED33EC337009E8FCE9FDEAFEEBFF2204AE
:1003D50060DED3EB9FEA9EE99DE8C2E78CF0C2F7A9
:1003E50095F0400CE8CCF8E9CDF9EACEFAEBCFFB75
:1003F50012023985D0F05804700320D5B3E8047093
:10040500075002B2D502027892D5EC0460F7E4CC2D
:10041500C0E0C398F8603B94186008400DD0E0FB3D
:10042500020250E4FBFAC9FC8028E830E406E4C97E
:10043500FBE4CAFCE830E305E4C9CACBFCE8540791
:100445006010F8C3E913F9EA13FAEB13FBEC13FC9C
:10045500D8F130F52FC3E49CFCEF9BFFEE9AFEED3F
:1004650099FDD0E0FBEF4E4D4C701222DB030202EA
:1004750075EC2CFCEF33FFEE33FEED33FDED30E78D
:10048500EB020250EF2BFFEE3AFEED39FDD0E0FB1B
:1004950050130BBB0003020278ED13FDEE13FEEFC4
:0804A50013FFEC13FC020250EE
:1004AD003F8000004120000042C80000447A000057
:1004BD00461C400047C35000497424004B189680D9
:1004CD004CBEBC205A0E1BCA6753C21C749DC5AED0
:1004DD00FB60065407601C232312050BEB54386098
:1004ED00091204F712050612001EECF8EDF9EEFAEA
:1004FD00EFCB22EB12050680F1543803241C900437
:10050D00ADFE93FC0EEE93FD0EEE930ECE93FF22F9
:03000000020BAC44
:0C0BAC00787FE4F6D8FD75816B020BF336
:10051D00BB010689828A83E0225002E722BBFE02DC
:09052D00E32289828A83E493220F
:10053600BB010CE58229F582E5833AF583E022507A
:1005460006E92582F8E622BBFE06E92582F8E222C4
:0D055600E58229F582E5833AF583E49322DE
:10056300BB010689828A83F0225002F722BBFE0177
:02057300F32271
:10057500EF8DF0A4A8F0CF8CF0A428CE8DF0A42E9A
:02058500FE2254
:0E058700C3E49FFFE49EFEE49DFDE49CFC2285
:10059500EB9FF5F0EA9E42F0E99D42F0E89C45F0BC
:0105A5002233
:1005A600FAE6FB0808E6F925F0F618E6CA3AF62256
:1005B600D083D082F8E4937012740193700DA3A3D4
:1005C60093F8740193F5828883E4737402936860E8
:0605D600EFA3A3A380DFE8
:10102200EFB40A07740D12102D740A309811A899A2
:10103200B8130CC2983098FDA899C298B811F6302E
:0710420099FDC299F5992206
:100BB800020B0EE493A3F8E493A34003F68001F23A
:100BC80008DFF48029E493A3F85407240CC8C3333E
:100BD800C4540F4420C8834004F456800146F6DF0D
:100BE800E4800B0102040810204080900F5DE47E31
:100BF800019360BCA3FF543F30E509541FFEE49302
:100C0800A360010ECF54C025E060A840B8E493A3C8
:100C1800FAE493A3F8E493A3C8C582C8CAC583CAF3
:100C2800F0A3C8C582C8CAC583CADFE9DEE780BEAB
:010F8500006B
:00000001FF
